:100000000C9461000C9473000C9473000C947300B6
:100010000C9473000C9473000C9473000C94730094
:100020000C9473000C9473000C9473000C94730084
:100030000C9473000C9473000C9473000C94730074
:100040000C9470010C9473000C9473000C94730066
:100050000C9473000C9473000C9473000C94730054
:100060000C9473000C94730000000000240027001F
:100070002A0000000000250028002B0000000000DE
:1000800023002600290004040404040404040202DA
:100090000202020203030303030301020408102007
:1000A0004080010204081020010204081020000012
:1000B0000008000201000003040700000000000027
:1000C000000011241FBECFEFD8E0DEBFCDBF21E07E
:1000D000A0E0B1E001C01D92A531B207E1F70E9496
:1000E000BA010C94ED020C9400008091C00085FFD1
:1000F000FCCF8091C1008E7F8093C10081E080930E
:10010000C6000895833081F028F4813099F0823060
:10011000A1F008958730A9F08830B9F08430D1F487
:10012000809180008F7D03C0809180008F778093C5
:100130008000089584B58F7702C084B58F7D84BD1B
:1001400008958091B0008F7703C08091B0008F7DBB
:100150008093B0000895CF93DF93282F30E0F9010A
:10016000E255FF4F8491F901E656FF4FD491F90112
:10017000EA57FF4FC491CC2391F081110E94820075
:10018000EC2FF0E0EE0FFF1FE458FF4FA591B49164
:10019000EC91ED2381E090E021F480E002C080E06A
:1001A00090E0DF91CF9108951F93CF93DF93282F95
:1001B00030E0F901E255FF4F8491F901E656FF4F17
:1001C000D491F901EA57FF4FC491CC23C1F0162F07
:1001D00081110E948200EC2FF0E0EE0FFF1FEE581D
:1001E000FF4FA591B4919FB7F894111104C08C9161
:1001F000D095D82302C0EC91DE2BDC939FBFDF911A
:10020000CF911F910895CF93DF9390E0FC01E656C4
:10021000FF4F2491FC01EA57FF4F8491882361F13D
:1002200090E0880F991FFC01E859FF4FC591D491C8
:10023000FC01EE58FF4FA591B491611109C09FB721
:10024000F8948881209582238883EC912E230BC01B
:10025000623061F49FB7F8948881322F3095832300
:100260008883EC912E2B2C939FBF06C08FB7F894F8
:10027000E8812E2B28838FBFDF91CF9108953FB760
:10028000F8948091110190911201A0911301B09105
:10029000140126B5A89B05C02F3F19F00196A11D9A
:1002A000B11D3FBFBA2FA92F982F8827820F911D0C
:1002B000A11DB11DBC01CD0142E0660F771F881F53
:1002C000991F4A95D1F708959091C00095FFFCCFF2
:1002D0009091C10091609093C1008093C6000895F1
:1002E0001F920F920FB60F9211242F933F938F936B
:1002F0009F93AF93BF9380910D0190910E01A091B8
:100300000F01B091100130910C0123E0230F2D3724
:1003100020F40196A11DB11D05C026E8230F029609
:10032000A11DB11D20930C0180930D0190930E012E
:10033000A0930F01B09310018091110190911201CF
:10034000A0911301B09114010196A11DB11D8093DC
:10035000110190931201A0931301B0931401BF9166
:10036000AF919F918F913F912F910F900FBE0F9062
:100370001F901895789484B5826084BD84B581609F
:1003800084BD85B5826085BD85B5816085BD809160
:100390006E00816080936E001092810080918100D8
:1003A00082608093810080918100816080938100D0
:1003B000809180008160809380008091B100846092
:1003C0008093B1008091B00081608093B0008091F3
:1003D0007A00846080937A0080917A0082608093B2
:1003E0007A0080917A00816080937A0080917A000F
:1003F000806880937A001092C1001092C5008BE053
:100400008093C4008091C00081608093C0008CE123
:100410008093C1008091C20086608093C20061E039
:100420008DE00E94030161E082E00E94030162E02E
:100430008BE00E94030162E08AE00E94030162E017
:1004400089E00E94030162E088E00E94030162E00B
:1004500087E00E94030162E086E00E94030150E011
:10046000A52E50E0B52E87E00E94AB006C01909362
:100470000B0180930A0186E00E94AB007C019093FF
:1004800009018093080188E00E94AB008C019093E1
:1004900007018093060189E00E94AB004C01909314
:1004A0000501809304018AE00E94AB00EC01909367
:1004B0000301809302018BE00E94AB00880C991C21
:1004C000CC0FDD1FCC0FDD1FC829D9290C2B1D2B0C
:1004D00043E0880F991F4A95E1F7082B192B1093D9
:1004E0000101009300010F301105A1F461E082E0E9
:1004F0000E94D400CD2829F48DE00E9464010E945E
:100500007500EF2809F062C08EE00E9464010E942D
:1005100075005CC060E082E00E94D4008091C00061
:1005200087FFFCCF9091C0008091C1002091C60050
:100530009C7141F486958170782E612CC301822BC9
:100540009C0102C02FEF3FEF832F992787FD9A95DB
:10055000019761F433278091C0000217130711F44B
:100560008E7F01C081608093C00030C0213071F562
:1005700061E08DE00E94D4000E943F016B017C018C
:100580008AE0282E312C412C512C0E943F01DC01A5
:10059000CB018C199D09AE09BF09883E9340A10586
:1005A000B10598F391E0291A31084108510828EE65
:1005B000C20E23E0D21EE11CF11C211431044104BF
:1005C000510419F760E08DE00E94D400A114B10439
:0E05D00009F449CF0E94000046CFF894FFCFF7
:00000001FF
